S00F00006D696E69426F742E7372656343
S113000012C024C023C022C021C020C01FC01EC0F3
S11300101DC01CC01BC01AC019C018C017C016C010
S113002015C014C013C011241FBECFE5D4E0DEBF39
S1130030CDBF10E0A0E6B0E0E0EFF0E002C0059034
S11300400D92AE36B107D9F721D050C0D9CF10BC2C
S113005085E089B986E880BD88E18AB908955F9B07
S1130060FECF8CB108955D9BFECF8CB90895CF93DC
S1130070DF93EC012196FC018081882321F0F3DFDA
S113008089918111FCCFDF91CF910895E0DF86E95A
S113009081BF87EA91E60197F1F700C0000080E68E
S11300A090E0E5DFDCDF833729F4A998AA9AAB98BE
S11300B0AC9A0EC0873729F4A99AAA98AB9AAC983F
S11300C00EC0883729F4A998AA98AB98AC98EACFBF
S11300D0843629F4A998AA9AAB9AAC98E3CF8136CE
S11300E009F7A99AAA98AB98AC9ADCCFF894FFCFF9
S11100F048656C6C6F20756172740D0A000017
S9030000FC
